{
  "_format": "hh-sol-artifact-1",
  "contractName": "MusicDapp",
  "sourceName": "contracts/MusicDapp.sol",
  "abi": [
    {
      "inputs": [],
      "stateMutability": "nonpayable",
      "type": "constructor"
    },
    {
      "inputs": [
        {
          "internalType": "address",
          "name": "owner",
          "type": "address"
        }
      ],
      "name": "OwnableInvalidOwner",
      "type": "error"
    },
    {
      "inputs": [
        {
          "internalType": "address",
          "name": "account",
          "type": "address"
        }
      ],
      "name": "OwnableUnauthorizedAccount",
      "type": "error"
    },
    {
      "anonymous": false,
      "inputs": [
        {
          "indexed": true,
          "internalType": "address",
          "name": "previousOwner",
          "type": "address"
        },
        {
          "indexed": true,
          "internalType": "address",
          "name": "newOwner",
          "type": "address"
        }
      ],
      "name": "OwnershipTransferred",
      "type": "event"
    },
    {
      "inputs": [],
      "name": "accessControl",
      "outputs": [
        {
          "internalType": "contract AccessControl",
          "name": "",
          "type": "address"
        }
      ],
      "stateMutability": "view",
      "type": "function"
    },
    {
      "inputs": [],
      "name": "artistRegistry",
      "outputs": [
        {
          "internalType": "contract ArtistRegistry",
          "name": "",
          "type": "address"
        }
      ],
      "stateMutability": "view",
      "type": "function"
    },
    {
      "inputs": [],
      "name": "fundingPool",
      "outputs": [
        {
          "internalType": "contract FundingPool",
          "name": "",
          "type": "address"
        }
      ],
      "stateMutability": "view",
      "type": "function"
    },
    {
      "inputs": [],
      "name": "governance",
      "outputs": [
        {
          "internalType": "contract TokenGovernance",
          "name": "",
          "type": "address"
        }
      ],
      "stateMutability": "view",
      "type": "function"
    },
    {
      "inputs": [],
      "name": "marketplace",
      "outputs": [
        {
          "internalType": "contract Marketplace",
          "name": "",
          "type": "address"
        }
      ],
      "stateMutability": "view",
      "type": "function"
    },
    {
      "inputs": [],
      "name": "musicToken",
      "outputs": [
        {
          "internalType": "contract MusicToken",
          "name": "",
          "type": "address"
        }
      ],
      "stateMutability": "view",
      "type": "function"
    },
    {
      "inputs": [],
      "name": "owner",
      "outputs": [
        {
          "internalType": "address",
          "name": "",
          "type": "address"
        }
      ],
      "stateMutability": "view",
      "type": "function"
    },
    {
      "inputs": [],
      "name": "renounceOwnership",
      "outputs": [],
      "stateMutability": "nonpayable",
      "type": "function"
    },
    {
      "inputs": [],
      "name": "royaltyDistribution",
      "outputs": [
        {
          "internalType": "contract RoyaltyDistribution",
          "name": "",
          "type": "address"
        }
      ],
      "stateMutability": "view",
      "type": "function"
    },
    {
      "inputs": [
        {
          "internalType": "address",
          "name": "newOwner",
          "type": "address"
        }
      ],
      "name": "transferOwnership",
      "outputs": [],
      "stateMutability": "nonpayable",
      "type": "function"
    },
    {
      "inputs": [
        {
          "internalType": "address",
          "name": "_artistRegistry",
          "type": "address"
        },
        {
          "internalType": "address",
          "name": "_musicToken",
          "type": "address"
        },
        {
          "internalType": "address",
          "name": "_marketplace",
          "type": "address"
        },
        {
          "internalType": "address",
          "name": "_royaltyDistribution",
          "type": "address"
        },
        {
          "internalType": "address",
          "name": "_fundingPool",
          "type": "address"
        },
        {
          "internalType": "address",
          "name": "_accessControl",
          "type": "address"
        },
        {
          "internalType": "address",
          "name": "_governance",
          "type": "address"
        }
      ],
      "name": "updateContractAddresses",
      "outputs": [],
      "stateMutability": "nonpayable",
      "type": "function"
    }
  ],
  "bytecode": "0x6080806040523461056057600090331561054c578154336001600160a01b0319821681178455906001600160a01b03167f8be0079c531659141344cd1fd0a4f28419497f9722a3daafe3b4186f6b6457e08480a3610ecb818101906001600160401b0382118383101761053857908291610a608339039082f0801561050357600180546001600160a01b0319166001600160a01b0392909216918217905560405190611fae80830191906001600160401b038311848410176105105791839160209361192b8439815203019082f0801561050357600280546001600160a01b0319166001600160a01b0392909216919091179055604051610cc8808201906001600160401b03821183831017610538579082916138d98339039082f0801561050357600480546001600160a01b0319166001600160a01b03929092169190911790556040516116f6808201906001600160401b03821183831017610538579082916145a18339039082f0801561050357600580546001600160a01b0319166001600160a01b0392831690811790915560025460045460405193611313808601949392821692909116906001600160401b03851186861017610524579185939160809593615c97863983526020830152604082015233606082015203019082f0801561050357600380546001600160a01b0319166001600160a01b03928316179055600254604051916110e380840192909116906001600160401b0383118484101761051057918391602093616faa8439815203019082f0801561050357600680546001600160a01b0319166001600160a01b039283161790556002546040519161113880840192909116906001600160401b038311848410176105105791839160209361808d8439815203019082f0801561050357600780546001600160a01b0319166001600160a01b03928316179055600154829116803b156104875781809160246040518095819363f2fde38b60e01b83523060048401525af18015610503576104f3575b6002549091506001600160a01b0316803b156104875781809160246040518094819363f2fde38b60e01b83523060048401525af1801561047c576104de575b506004546001600160a01b0316803b156104875781809160246040518094819363f2fde38b60e01b83523060048401525af1801561047c576104c9575b506005546001600160a01b0316803b156104875781809160246040518094819363f2fde38b60e01b83523060048401525af1801561047c576104b4575b506003546001600160a01b0316803b156104875781809160246040518094819363f2fde38b60e01b83523060048401525af1801561047c5761049f575b506006546001600160a01b0316803b156104875781809160246040518094819363f2fde38b60e01b83523060048401525af1801561047c5761048a575b506007546001600160a01b0316803b1561048757819060246040518094819363f2fde38b60e01b83523060048401525af1801561047c57610464575b6040516104c1908161059f8239f35b61046f828092610565565b6104795780610455565b80fd5b6040513d84823e3d90fd5b50fd5b8161049491610565565b610479578038610419565b816104a991610565565b6104795780386103dc565b816104be91610565565b61047957803861039f565b816104d391610565565b610479578038610362565b816104e891610565565b610479578038610325565b6104fc91610565565b38816102e6565b50604051903d90823e3d90fd5b634e487b7160e01b85526041600452602485fd5b634e487b7160e01b87526041600452602487fd5b634e487b7160e01b84526041600452602484fd5b631e4fbdf760e01b82526004829052602482fd5b600080fd5b601f909101601f19168101906001600160401b0382119082101761058857604052565b634e487b7160e01b600052604160045260246000fdfe608080604052600436101561001357600080fd5b60003560e01c90816313007d5514610428575080635aa6e675146103ff578063715018a6146103a657806381703be71461037d578063854a57de146103545780638da5cb5b1461032b578063abc8c7af14610302578063b5471e6f14610178578063eb3c79da1461014f578063f2fde38b146100c65763f6a1fe941461009857600080fd5b346100c15760003660031901126100c1576005546040516001600160a01b039091168152602090f35b600080fd5b346100c15760203660031901126100c1576100df61044c565b6100e7610462565b6001600160a01b0316801561013957600080546001600160a01b03198116831782556001600160a01b0316907f8be0079c531659141344cd1fd0a4f28419497f9722a3daafe3b4186f6b6457e09080a3005b631e4fbdf760e01b600052600060045260246000fd5b346100c15760003660031901126100c1576002546040516001600160a01b039091168152602090f35b346100c15760e03660031901126100c15761019161044c565b6024356001600160a01b038116908190036100c1576044356001600160a01b038116908190036100c1576064356001600160a01b038116908190036100c1576084356001600160a01b03811692908390036100c15760a4356001600160a01b03811694908590036100c15760c4356001600160a01b03811696908790036100c15761021a610462565b6001600160a01b0316806102e9575b50806102d0575b50806102b7575b508061029e575b5080610285575b508061026c575b508061025457005b6001600160601b0360a01b6007541617600755600080f35b6001600160601b0360a01b60065416176006558161024c565b6001600160601b0360a01b600554161760055582610245565b6001600160601b0360a01b60045416176004558361023e565b6001600160601b0360a01b600354161760035584610237565b6001600160601b0360a01b600254161760025585610230565b6001600160601b0360a01b600154161760015586610229565b346100c15760003660031901126100c1576003546040516001600160a01b039091168152602090f35b346100c15760003660031901126100c1576000546040516001600160a01b039091168152602090f35b346100c15760003660031901126100c1576004546040516001600160a01b039091168152602090f35b346100c15760003660031901126100c1576001546040516001600160a01b039091168152602090f35b346100c15760003660031901126100c1576103bf610462565b600080546001600160a01b0319811682556001600160a01b03167f8be0079c531659141344cd1fd0a4f28419497f9722a3daafe3b4186f6b6457e08280a3005b346100c15760003660031901126100c1576007546040516001600160a01b039091168152602090f35b346100c15760003660031901126100c1576006546001600160a01b03168152602090f35b600435906001600160a01b03821682036100c157565b6000546001600160a01b0316330361047657565b63118cdaa760e01b6000523360045260246000fdfea26469706673582212203d82157c853d772677770f65b996602eca7b1debba77bd1d739aa9a3c2af99eb64736f6c634300081c0033608080604052346075573315605f5760008054336001600160a01b0319821681178355916001600160a01b03909116907f8be0079c531659141344cd1fd0a4f28419497f9722a3daafe3b4186f6b6457e09080a3610e50908161007b8239f35b631e4fbdf760e01b600052600060045260246000fd5b600080fdfe6080604052600436101561001257600080fd5b60003560e01c8063069dab8f14610a9c5780634c7061b1146109ab57806360fa0426146100ab578063657affbf14610941578063715018a6146108e85780637c1d61971461065a5780638da5cb5b146106315780639962a99614610277578063a9225d1b1461025b578063b949c8041461019e578063be53048214610180578063f2fde38b146100f35763f558369f146100ab57600080fd5b346100ee5760203660031901126100ee576004356001600160a01b038116908190036100ee576000526002602052602060ff604060002054166040519015158152f35b600080fd5b346100ee5760203660031901126100ee576004356001600160a01b038116908190036100ee57610121610df1565b801561016a57600080546001600160a01b03198116831782556001600160a01b0316907f8be0079c531659141344cd1fd0a4f28419497f9722a3daafe3b4186f6b6457e09080a3005b631e4fbdf760e01b600052600060045260246000fd5b346100ee5760003660031901126100ee576020600354604051908152f35b346100ee5760203660031901126100ee576004356001600160a01b038116908190036100ee578060005260026020526101de60ff60406000205416610d61565b60005260016020526040600020604051906101f882610b4e565b61020181610b8c565b825261025761021260018301610b8c565b92836020820152600283015492600360ff60018060a01b0386169586604086015260a01c16151591826060850152015491826080820152519360405195869586610c71565b0390f35b346100ee5760003660031901126100ee57602060405160198152f35b346100ee5761028536610d0e565b91909133600052600260205260ff604060002054166105ec576102ab6019821115610da5565b604051906102b882610b4e565b82825260208201938452604082013381526060830160008152608084019283523360005260016020526040600020935180519067ffffffffffffffff82116105135781906103068754610b14565b601f8111610599575b50602090601f831160011461053457600092610529575b50508160011b916000199060031b1c19161784555b60018401955195865167ffffffffffffffff81116105135761035d8254610b14565b601f81116104cb575b506020601f82116001146104625781906003979899600092610457575b50508160011b9160001990881b1c19161790555b90516002858101805493516001600160a81b03199094166001600160a01b03939093169290921792151560a01b60ff60a01b169290921790559051919092015533600090815260209190915260409020805460ff191660011790556003546000198114610441576001016003557fd4fd8fd455c3fdfe36126d7de16d1f208385873ff3250ddf3bc9b833ba2b7e35604051602081528061043c33946020830190610c30565b0390a2005b634e487b7160e01b600052601160045260246000fd5b015190508980610383565b601f1982169883600052816000209960005b8181106104b3575091600398999a9184600195941061049b575b505050811b019055610397565b0151600019838a1b60f8161c1916905589808061048e565b838301518c556001909b019a60209384019301610474565b826000526020600020601f830160051c81019160208410610509575b601f0160051c01905b8181106104fd5750610366565b600081556001016104f0565b90915081906104e7565b634e487b7160e01b600052604160045260246000fd5b015190508880610326565b60008881528281209350601f198516905b8181106105815750908460019594939210610568575b505050811b01845561033b565b015160001960f88460031b161c1916905588808061055b565b92936020600181928786015181550195019301610545565b909150866000526020600020601f840160051c810191602085106105e2575b90601f859493920160051c01905b8181106105d3575061030f565b600081558493506001016105c6565b90915081906105b8565b60405162461bcd60e51b815260206004820152601960248201527f41727469737420616c72656164792072656769737465726564000000000000006044820152606490fd5b346100ee5760003660031901126100ee576000546040516001600160a01b039091168152602090f35b346100ee5761066836610d0e565b33600052600260205261068260ff60406000205416610d61565b61068f6019821115610da5565b3360005260016020526040600020835167ffffffffffffffff8111610513576106b88254610b14565b601f81116108a0575b50602094601f821160011461083b57948192939495600092610830575b50508160011b916000199060031b1c19161781555b60018101835167ffffffffffffffff8111610513576107128254610b14565b601f81116107e8575b506020601f821160011461078057819060039596600092610775575b50508160011b9160001990861b1c19161790555b0155337f5fb39ab7fd9e7c2e86419fe67772b62284d0ab28f8e57159a831fbddd9a91049600080a2005b015190508680610737565b601f1982169583600052816000209660005b8181106107d057509160039697918460019594106107b8575b505050811b01905561074b565b015160001983881b60f8161c191690558680806107ab565b83830151895560019098019760209384019301610792565b826000526020600020601f830160051c81019160208410610826575b601f0160051c01905b81811061081a575061071b565b6000815560010161080d565b9091508190610804565b0151905085806106de565b601f1982169583600052806000209160005b8881106108885750836001959697981061086f575b505050811b0181556106f3565b015160001960f88460031b161c19169055858080610862565b9192602060018192868501518155019401920161084d565b826000526020600020601f830160051c810191602084106108de575b601f0160051c01905b8181106108d257506106c1565b600081556001016108c5565b90915081906108bc565b346100ee5760003660031901126100ee57610901610df1565b600080546001600160a01b0319811682556001600160a01b03167f8be0079c531659141344cd1fd0a4f28419497f9722a3daafe3b4186f6b6457e08280a3005b346100ee5760203660031901126100ee576004356001600160a01b038116908190036100ee5780600052600260205260ff604060002054168061098c575b6020906040519015158152f35b506000526001602052602060ff60026040600020015460a01c1661097f565b346100ee5760203660031901126100ee576004356001600160a01b038116908190036100ee576109d9610df1565b8060005260026020526109f360ff60406000205416610d61565b80600052600160205260ff60026040600020015460a01c16610a57576000818152600160205260408120600201805460ff60a01b1916600160a01b1790557fee6bea46cf54bec5f187edb810afd9edae51df8f3ce55aa9c6f330941d800a3d9080a2005b60405162461bcd60e51b815260206004820152601760248201527f41727469737420616c72656164792076657269666965640000000000000000006044820152606490fd5b346100ee5760203660031901126100ee576004356001600160a01b038116908190036100ee5760005260016020526040600020610ad881610b8c565b90610257610ae860018301610b8c565b6002830154600390930154604051948594919260a083901c60ff16926001600160a01b03169186610c71565b90600182811c92168015610b44575b6020831014610b2e57565b634e487b7160e01b600052602260045260246000fd5b91607f1691610b23565b60a0810190811067ffffffffffffffff82111761051357604052565b90601f8019910116810190811067ffffffffffffffff82111761051357604052565b9060405191826000825492610ba084610b14565b8084529360018116908115610c0e5750600114610bc7575b50610bc592500383610b6a565b565b90506000929192526020600020906000915b818310610bf2575050906020610bc59282010138610bb8565b6020919350806001915483858901015201910190918492610bd9565b905060209250610bc594915060ff191682840152151560051b82010138610bb8565b919082519283825260005b848110610c5c575050826000602080949584010152601f8019910116010190565b80602080928401015182828601015201610c3b565b91610c9c90610c8e6080959897969360a0865260a0860190610c30565b908482036020860152610c30565b6001600160a01b039096166040830152151560608201520152565b81601f820112156100ee5780359067ffffffffffffffff82116105135760405192610cec601f8401601f191660200185610b6a565b828452602083830101116100ee57816000926020809301838601378301015290565b9060606003198301126100ee5760043567ffffffffffffffff81116100ee5782610d3a91600401610cb7565b916024359067ffffffffffffffff82116100ee57610d5a91600401610cb7565b9060443590565b15610d6857565b60405162461bcd60e51b8152602060048201526015602482015274105c9d1a5cdd081b9bdd081c9959da5cdd195c9959605a1b6044820152606490fd5b15610dac57565b60405162461bcd60e51b815260206004820152601b60248201527f526f79616c74792070657263656e7461676520746f6f206869676800000000006044820152606490fd5b6000546001600160a01b03163303610e0557565b63118cdaa760e01b6000523360045260246000fdfea26469706673582212204054f73ec9040625698bf6c341db3a07cd3720e0ac40b5864e63f5f48f74e5f164736f6c634300081c00336080604052346101bf57604051600090611fae3881900390601f8201601f191683016001600160401b038111848210176101ab57918084926020946040528339810103126101a757516001600160a01b03811691908290036101a457604051602081016001600160401b038111828210176101905760405252600254600181811c91168015610186575b602082101461017057601f8111610126575b50600060025533156101105760058054336001600160a01b0319821681179092556040519291906001600160a01b03167f8be0079c531659141344cd1fd0a4f28419497f9722a3daafe3b4186f6b6457e0600080a3600680546001600160a01b031916919091179055611de990816101c58239f35b631e4fbdf760e01b600052600060045260246000fd5b6002600052601f0160051c7f405787fa12a823e0f2b7631cc41b3ba8828b3321ca811111fa75cd3aa3bb5ace908101905b818110610164575061009b565b60008155600101610157565b634e487b7160e01b600052602260045260246000fd5b90607f1690610089565b634e487b7160e01b83526041600452602483fd5b80fd5b5080fd5b634e487b7160e01b85526041600452602485fd5b600080fdfe6080604052600436101561001257600080fd5b60003560e01c8062fdd58e1461016657806301ffc9a7146101615780630e89341c1461015c57806318160ddd146101575780631be818a4146101525780632eb2c2d61461014d57806339fe5c4c146101485780634e1273f4146101435780634f558e791461013e5780635b0d276d14610139578063715018a61461013457806381703be71461012f578063897925f51461012a5780638da5cb5b14610125578063a22cb46514610120578063b09afec11461011b578063bd85b03914610116578063c457fb3714610111578063e985e9c51461010c578063f242432a146101075763f2fde38b1461010257600080fd5b610f57565b610e48565b610deb565b610da2565b610d76565b610c6d565b610b5a565b610b31565b610a56565b610a2d565b6109d0565b6108bd565b610887565b6107c8565b610716565b61055b565b610462565b610372565b6102d2565b61020f565b6101b0565b600435906001600160a01b038216820361018157565b600080fd5b602435906001600160a01b038216820361018157565b35906001600160a01b038216820361018157565b346101815760403660031901126101815760206101f46101ce61016b565b6024356000526000835260406000209060018060a01b0316600052602052604060002090565b54604051908152f35b6001600160e01b031981160361018157565b3461018157602036600319011261018157602060043561022e816101fd565b63ffffffff60e01b16636cdb3d1360e11b811490811561026c575b811561025b575b506040519015158152f35b6301ffc9a760e01b14905038610250565b6303a24d0760e21b81149150610249565b919082519283825260005b8481106102a9575050826000602080949584010152601f8019910116010190565b80602080928401015182828601015201610288565b9060206102cf92818152019061027d565b90565b34610181576020366003190112610181576004356102fd816000526003602052604060002054151590565b1561032d57600052600860205261032961031d6001604060002001610621565b604051918291826102be565b0390f35b60405162461bcd60e51b815260206004820152601f60248201527f55524920717565727920666f72206e6f6e6578697374656e7420746f6b656e006044820152606490fd5b34610181576000366003190112610181576020600454604051908152f35b634e487b7160e01b600052604160045260246000fd5b60e081019081106001600160401b038211176103c157604052565b610390565b90601f801991011681019081106001600160401b038211176103c157604052565b604051906103f660e0836103c6565b565b6001600160401b0381116103c157601f01601f191660200190565b81601f820112156101815760208135910161042d826103f8565b9261043b60405194856103c6565b828452828201116101815781600092602092838601378301015290565b8015150361018157565b346101815760e0366003190112610181576004356001600160401b03811161018157610492903690600401610413565b6024356001600160401b03811161018157610329916104b86104d7923690600401610413565b6084356064356044356104ca83610458565b60a4359360c43595611357565b6040519081529081906020820190565b6001600160401b0381116103c15760051b60200190565b9080601f83011215610181578135610515816104e7565b9261052360405194856103c6565b81845260208085019260051b82010192831161018157602001905b82821061054b5750505090565b813581526020918201910161053e565b346101815760a03660031901126101815761057461016b565b61057c610186565b906044356001600160401b0381116101815761059c9036906004016104fe565b6064356001600160401b038111610181576105bb9036906004016104fe565b90608435936001600160401b038511610181576105df6105e5953690600401610413565b936114bc565b005b90600182811c92168015610617575b602083101461060157565b634e487b7160e01b600052602260045260246000fd5b91607f16916105f6565b9060405191826000825492610635846105e7565b80845293600181169081156106a1575060011461065a575b506103f6925003836103c6565b90506000929192526020600020906000915b8183106106855750509060206103f6928201013861064d565b602091935080600191548385890101520191019091849261066c565b9050602092506103f694915060ff191682840152151560051b8201013861064d565b939060c095926106e36106f1929a9998959a60e0885260e088019061027d565b90868203602088015261027d565b6001600160a01b03909816604085015260608401526080830152151560a08201520152565b34610181576020366003190112610181576004356000526008602052604060002061074081610621565b61032961074f60018401610621565b9260018060a01b03600282015416906003810154600482015490600660ff60058501541693015493604051978897886106c3565b906020808351928381520192019060005b8181106107a15750505090565b8251845260209384019390920191600101610794565b9060206102cf928181520190610783565b34610181576040366003190112610181576004356001600160401b038111610181573660238201121561018157806004013590610804826104e7565b9161081260405193846103c6565b8083526024602084019160051b8301019136831161018157602401905b82821061086f57836024356001600160401b038111610181576103299161085d6108639236906004016104fe565b90611543565b604051918291826107b7565b6020809161087c8461019c565b81520191019061082f565b346101815760203660031901126101815760206108b36004356000526003602052604060002054151590565b6040519015158152f35b34610181576040366003190112610181576105e56004356024358160005260086020526040600020610988610981610975604051936108fb856103a6565b61090481610621565b855261091260018201610621565b602086015260028101546001600160a01b0316604086019081529060c0906006906003810154606089015260048101546080890152610961610958600583015460ff1690565b151560a08a0152565b01549501948552516001600160a01b031690565b6001600160a01b031690565b33146115fb565b805161099f575b50610998611318565b9133611707565b6109ca906109c1836109bb866000526003602052604060002090565b54611655565b90511015611678565b3861098f565b34610181576000366003190112610181576109e96117e7565b600580546001600160a01b031981169091556000906001600160a01b03167f8be0079c531659141344cd1fd0a4f28419497f9722a3daafe3b4186f6b6457e08280a3005b34610181576000366003190112610181576006546040516001600160a01b039091168152602090f35b34610181576040366003190112610181576004356024356000828152600860205260409020600201546001600160a01b03163303610ae157610adc817f945c1c4e99aa89f648fbfe3df471b916f719e16d960fcec0737d4d56bd696838926003610aca866000526008602052604060002090565b01556040519081529081906020820190565b0390a2005b60405162461bcd60e51b815260206004820152602260248201527f4f6e6c7920746f6b656e206172746973742063616e2075706461746520707269604482015261636560f01b6064820152608490fd5b34610181576000366003190112610181576005546040516001600160a01b039091168152602090f35b3461018157604036600319011261018157610b7361016b565b602435610b7f81610458565b6001600160a01b038216918215610bfe5781610bbd610bce9233600052600160205260406000209060018060a01b0316600052602052604060002090565b9060ff801983541691151516179055565b60405190151581527f17307eab39ab6107e8899845ad3d59bd9653f200f220920489ca2b5937696c3160203392a3005b62ced3e160e81b600052600060045260246000fd5b9491610c4390610c3560e098959b9a999693610100895261010089019061027d565b90878203602089015261027d565b6001600160a01b03909916604086015260608501526080840152151560a083015260c08201520152565b3461018157602036600319011261018157600435610ca0610c9b826000526003602052604060002054151590565b6116c4565b806000526008602052604060002061032960405191610cbe836103a6565b610cc781610621565b8352610cd560018201610621565b6020840190815260028201546001600160a01b0316604085019081529490939060038301549260608301938452600481015460808401908152610d68610d57610d4c6006610d27600587015460ff1690565b151560a0890190815295015460c08801819052965199519a516001600160a01b031690565b965192519351151590565b936000526003602052604060002090565b549460405198899889610c13565b346101815760203660031901126101815760043560005260036020526020604060002054604051908152f35b3461018157602036600319011261018157600435610dd0610c9b826000526003602052604060002054151590565b60005260086020526020600360406000200154604051908152f35b3461018157604036600319011261018157602060ff610e3c610e0b61016b565b610e13610186565b6001600160a01b0391821660009081526001865260408082209290931681526020919091522090565b54166040519015158152f35b346101815760a036600319011261018157610e6161016b565b610e69610186565b60443590606435926084356001600160401b03811161018157610e90903690600401610413565b926001600160a01b0382163381141580610f33575b610f1b576001600160a01b03841615610f055715610ef0576105e594610ee860405192600184526020840152604083019160018352606084015260808301604052565b929091611810565b626a0d4560e21b600052600060045260246000fd5b632bfa23e760e11b600052600060045260246000fd5b63711bec9160e11b6000523360045260245260446000fd5b50600081815260016020908152604080832033845290915290205460ff1615610ea5565b3461018157602036600319011261018157610f7061016b565b610f786117e7565b6001600160a01b03168015610fcb57600580546001600160a01b0319811683179091556001600160a01b03167f8be0079c531659141344cd1fd0a4f28419497f9722a3daafe3b4186f6b6457e0600080a3005b631e4fbdf760e01b600052600060045260246000fd5b9081602091031261018157516102cf81610458565b6040513d6000823e3d90fd5b1561100957565b60405162461bcd60e51b815260206004820152602760248201527f4f6e6c7920766572696669656420617274697374732063616e2063726561746560448201526620746f6b656e7360c81b6064820152608490fd5b1561106557565b60405162461bcd60e51b815260206004820152601f60248201527f496e697469616c206d696e742065786365656473206d617820737570706c79006044820152606490fd5b601f82116110b757505050565b6000526020600020906020601f840160051c830193106110f2575b601f0160051c01905b8181106110e6575050565b600081556001016110db565b90915081906110d2565b91909182516001600160401b0381116103c1576111238161111d84546105e7565b846110aa565b6020601f8211600114611164578190611155939495600092611159575b50508160011b916000199060031b1c19161790565b9055565b015190503880611140565b601f1982169061117984600052602060002090565b9160005b8181106111b55750958360019596971061119c575b505050811b019055565b015160001960f88460031b161c19169055388080611192565b9192602060018192868b01518155019401920161117d565b9080518051906001600160401b0382116103c1576111f5826111ef86546105e7565b866110aa565b602090601f83116001146112a5578260c0936006959361122b936000926111595750508160011b916000199060031b1c19161790565b84555b61123f6020820151600186016110fc565b60408101516002850180546001600160a01b0319166001600160a01b03909216919091179055606081015160038501556080810151600485015561129e61128960a0830151151590565b600586019060ff801983541691151516179055565b0151910155565b90601f198316916112bb86600052602060002090565b9260005b818110611300575092600192859260c09660069896106112e7575b505050811b01845561122e565b015160001960f88460031b161c191690553880806112da565b929360206001819287860151815501950193016112bf565b604051906113276020836103c6565b60008252565b9261134560609396959260808652608086019061027d565b95602085015260408401521515910152565b600654919690959394939291611375906001600160a01b0316610975565b60405163657affbf60e01b81523360048201529490602090869060249082905afa9182156114b7576113d4611460937f505e715cfb889a8dc113bf63813244bb73b329ace4e3e7b143f1da09c6abfa0997600091611488575b50611002565b848111801590611480575b6113e89061105e565b61143d600754998a986113f96103e7565b8b8152602081019290925233604083015260608201879052608082015283151560a08201528660c0820152611438896000526008602052604060002090565b6111cd565b61144b600160075401600755565b80611466575b5060405193849333988561132d565b0390a390565b61147a90611472611318565b908833611707565b38611451565b5084156113df565b6114aa915060203d6020116114b0575b6114a281836103c6565b810190610fe1565b386113ce565b503d611498565b610ff6565b939291906001600160a01b03851633811415806114f5575b610f1b576001600160a01b03821615610f055715610ef0576103f694611810565b50600081815260016020908152604080832033845290915290205460ff16156114d4565b805182101561152d5760209160051b010190565b634e487b7160e01b600052603260045260246000fd5b919091805183518082036115e457505080519061155f826104e7565b9161156d60405193846103c6565b80835261157c601f19916104e7565b0136602084013760005b81518110156115dd57806115cc60019260051b60208082870101519189010151906000918252602082815260408084206001600160a01b03909316845291905290205490565b6115d68286611519565b5201611586565b5090925050565b635b05999160e01b60005260045260245260446000fd5b1561160257565b60405162461bcd60e51b815260206004820152602560248201527f4f6e6c7920746f6b656e206172746973742063616e206d696e742061646469746044820152641a5bdb985b60da1b6064820152608490fd5b9190820180921161166257565b634e487b7160e01b600052601160045260246000fd5b1561167f57565b60405162461bcd60e51b815260206004820152601760248201527f576f756c6420657863656564206d617820737570706c790000000000000000006044820152606490fd5b156116cb57565b60405162461bcd60e51b8152602060048201526014602482015273151bdad95b88191bd95cc81b9bdd08195e1a5cdd60621b6044820152606490fd5b93916001600160a01b03851615610f055761173f60405192600184526020840152604083019160018352606084015260808301604052565b909161174e8284876000611bd6565b600094855b84518710156117a1576117996001918860051b90611787602080848a010151938a0101516000526003602052604060002090565b611792838254611655565b9055611655565b960195611753565b6117bb9195949296506117b690600454611655565b600455565b80516001036117db57906020806103f69593015191015191600033611b11565b6103f6936000336119dc565b6005546001600160a01b031633036117fb57565b63118cdaa760e01b6000523360045260246000fd5b9193929061182082868386611bd6565b6001600160a01b038316156118e6575b6001600160a01b0381161580611885575b1561184e575b5050505050565b84516001036118745760208061186a9601519201519233611b11565b3880808080611847565b611880949192336119dc565b61186a565b94936000939091845b86518610156118ce576001908660051b906118bf602080848a010151938b0101516000526003602052604060002090565b8281540390550195019461188e565b6118e19193969792955060045403600455565b611841565b9392600092835b8551851015611929576119216001918660051b90611787602080848a010151938b0101516000526003602052604060002090565b9401936118ed565b61193f9194506117b69096929596600454611655565b611830565b9081602091031261018157516102cf816101fd565b6001600160a01b0391821681529116602082015260a0604082018190526102cf949193919261199e92916119909190860190610783565b908482036060860152610783565b91608081840391015261027d565b3d156119d7573d906119bd826103f8565b916119cb60405193846103c6565b82523d6000602084013e565b606090565b9091949293853b6119f0575b505050505050565b602093611a1291604051968795869563bc197c8160e01b875260048701611959565b038160006001600160a01b0387165af160009181611aa7575b50611a675750611a396119ac565b8051919082611a6057632bfa23e760e11b6000526001600160a01b03821660045260246000fd5b9050602001fd5b6001600160e01b0319166343e6837f60e01b01611a8a57503880808080806119e8565b632bfa23e760e11b6000526001600160a01b031660045260246000fd5b611aca91925060203d602011611ad1575b611ac281836103c6565b810190611944565b9038611a2b565b503d611ab8565b6001600160a01b039182168152911660208201526040810191909152606081019190915260a0608082018190526102cf9291019061027d565b9091949293853b611b2457505050505050565b602093611b4691604051968795869563f23a6e6160e01b875260048701611ad8565b038160006001600160a01b0387165af160009181611b90575b50611b6d5750611a396119ac565b6001600160e01b031916630dc5919f60e01b01611a8a57503880808080806119e8565b611baa91925060203d602011611ad157611ac281836103c6565b9038611b5f565b9091611bc86102cf93604084526040840190610783565b916020818403910152610783565b9392918051835190818103611d9c57505060005b8151811015611cf6578060051b90602080838501015192860101518460018060a01b038916611c73575b6001936001600160a01b038216611c2f575b50505001611bea565b611c6991611c4a611c61926000526000602052604060002090565b9060018060a01b0316600052602052604060002090565b918254611655565b9055388481611c26565b509091611c8e88611c4a836000526000602052604060002090565b54828110611cbf57829160019493879203611cb78b611c4a846000526000602052604060002090565b559350611c14565b6040516303dee4c560e01b81526001600160a01b038a16600482015260248101919091526044810183905260648101829052608490fd5b508051939493919291600103611d59576020908101519181015160408051938452918301526001600160a01b03928316939092169133917fc3d58168c5ae7397731d063d5bbf3d657854427343f4c083240f7aacaa2d0f6291819081015b0390a4565b6040516001600160a01b03938416949093169233927f4a39dc06d4c0dbc64b70af90fd698a233a518aa5d07e595d983b8c0526c8f7fb928291611d549183611bb1565b635b05999160e01b60005260045260245260446000fdfea264697066735822122064f6fa4585330ad67ce9e45ed6b9aa8e3ebd02a2edea75ce462a67a94968b8f164736f6c634300081c0033608080604052346075573315605f5760008054336001600160a01b0319821681178355916001600160a01b03909116907f8be0079c531659141344cd1fd0a4f28419497f9722a3daafe3b4186f6b6457e09080a3610c4d908161007b8239f35b631e4fbdf760e01b600052600060045260246000fd5b600080fdfe608080604052600436101561001357600080fd5b60003560e01c90816308e212cf14610ad157508063107262b11461096257806321c34fcb1461088f57806325d21014146106415780632bb12430146105de57806336860143146105a4578063715018a61461054b5780637b0aa4331461046e5780638da5cb5b14610445578063e1e549c4146103f4578063e9deacf4146103a3578063ed03c9521461013c5763f2fde38b146100ae57600080fd5b34610137576020366003190112610137576100c7610b07565b6100cf610bee565b6001600160a01b0316801561012157600080546001600160a01b03198116831782556001600160a01b0316907f8be0079c531659141344cd1fd0a4f28419497f9722a3daafe3b4186f6b6457e09080a3005b631e4fbdf760e01b600052600060045260246000fd5b600080fd5b34610137576060366003190112610137576004356024356001600160a01b038116908190036101375760443580151580610398575b156103535733600052600160205260406000208360005260205260406000206002810190836000528160205260ff6040600020541661030e576003018054906000845b8382106102ec57606491501161029b576101cc610b1d565b90858252602082019285845268010000000000000000811015610285576101f891600182018155610b7b565b92909261026f57600191828060a01b039051166bffffffffffffffffffffffff60a01b84541617835551910155826000526020526040600020600160ff1982541617905560405191825260208201527fe43f7950ec75e6532c03cd03e68cd15a68725bf18ed5f353fe789266c2f7247060403392a3005b634e487b7160e01b600052600060045260246000fd5b634e487b7160e01b600052604160045260246000fd5b60405162461bcd60e51b815260206004820152602360248201527f546f74616c2073686172652070657263656e746167652065786365656473203160448201526230302560e81b6064820152608490fd5b610306600191826102fd8587610b7b565b50015490610bce565b9101906101b4565b60405162461bcd60e51b815260206004820152601a60248201527f436f6c6c61626f7261746f7220616c72656164792061646465640000000000006044820152606490fd5b60405162461bcd60e51b815260206004820152601860248201527f496e76616c69642073686172652070657263656e7461676500000000000000006044820152606490fd5b506064811115610171565b346101375760203660031901126101375760206103ec6001600160a01b036103c9610b07565b168060005260028352604060002054906000526003835260406000205490610bc1565b604051908152f35b34610137576040366003190112610137576001600160a01b03610415610b07565b16600052600160205260406000206024356000526020526040806000206001815491015482519182526020820152f35b34610137576000366003190112610137576000546040516001600160a01b039091168152602090f35b606036600319011261013757610482610b07565b60243590604435908134036105065760207feaa6e2f2b4497d82abf579a9636431f7534bf8a8b82d95ec94a039a89aca3f1d9160018060a01b0316928360005260018252604060002085600052825260406000206104e1828254610bce565b9055836000526002825260406000206104fb828254610bce565b9055604051908152a3005b60405162461bcd60e51b815260206004820152601c60248201527f416d6f756e74206d757374206d617463682073656e742076616c7565000000006044820152606490fd5b3461013757600036600319011261013757610564610bee565b600080546001600160a01b0319811682556001600160a01b03167f8be0079c531659141344cd1fd0a4f28419497f9722a3daafe3b4186f6b6457e08280a3005b34610137576020366003190112610137576001600160a01b036105c5610b07565b1660005260026020526020604060002054604051908152f35b34610137576040366003190112610137576001600160a01b036105ff610b07565b1660005260016020526040600020602435600052602052606060406000206001815491015461062e8183610bc1565b9060405192835260208301526040820152f35b34610137576020366003190112610137573360005260016020526040600020600435600052602052604060002080546106806001830191825490610bc1565b91821561083c5760006003600092019182545b8082106108215750506064036064811161080b576106b360649185610bdb565b049160005b825481101561077e576106cb8184610b7b565b509060646106f660016106dc610b1d565b94818060a01b038154168652015480602086015288610bdb565b048015801561070c575b505060019150016106b8565b6000808084819460018060a01b03895116908390610775575bf115610769577f9c56d4e207b08f0df71c47be77f4558c7954505688b8f5372c828ed167846e406020600194858060a01b0390511692604051908152a28680610700565b6040513d6000823e3d90fd5b506108fc610725565b848285801580156107b6575b5050610797828254610bce565b90553360005260036020526107b26040600020918254610bce565b9055005b8190600090610802575b600080809381933390f115610769576040519081527f9c56d4e207b08f0df71c47be77f4558c7954505688b8f5372c828ed167846e4060203392a2828061078a565b506108fc6107c0565b634e487b7160e01b600052601160045260246000fd5b9091610834600191826102fd8688610b7b565b920190610693565b60405162461bcd60e51b815260206004820152602560248201527f4e6f20726f79616c7469657320617661696c61626c6520666f722074686973206044820152643a37b5b2b760d91b6064820152608490fd5b34610137576000366003190112610137573360005260026020526108c760406000205433600052600360205260406000205490610bc1565b80156109245733600052600360205260406000206108e6828254610bce565b90556000808080843382f115610769576040519081527f9c56d4e207b08f0df71c47be77f4558c7954505688b8f5372c828ed167846e4060203392a2005b60405162461bcd60e51b81526020600482015260166024820152754e6f20726f79616c7469657320617661696c61626c6560501b6044820152606490fd5b34610137576040366003190112610137576001600160a01b03610983610b07565b166000526001602052604060002060243560005260205260036040600020018054906109b66109b183610b63565b610b3d565b908282526109c383610b63565b6020830190601f19013682376109db6109b185610b63565b938085526109e881610b63565b602086019390601f190136853760005b828110610a86575050506040519384936040850190604086525180915260608501929060005b818110610a645750505060209084830382860152519182815201919060005b818110610a4b575050500390f35b8251845285945060209384019390920191600101610a3d565b82516001600160a01b0316855287965060209485019490920191600101610a1e565b80610a98600192849996979899610b7b565b50828060a01b03905416610aac828a610bad565b5281610ab88285610b7b565b500154610ac58287610bad565b520195949392956109f8565b34610137576020366003190112610137576020906001600160a01b03610af5610b07565b16600052600382526040600020548152f35b600435906001600160a01b038216820361013757565b604051906040820182811067ffffffffffffffff82111761028557604052565b6040519190601f01601f1916820167ffffffffffffffff81118382101761028557604052565b67ffffffffffffffff81116102855760051b60200190565b8054821015610b975760005260206000209060011b0190600090565b634e487b7160e01b600052603260045260246000fd5b8051821015610b975760209160051b010190565b9190820391821161080b57565b9190820180921161080b57565b8181029291811591840414171561080b57565b6000546001600160a01b03163303610c0257565b63118cdaa760e01b6000523360045260246000fdfea26469706673582212200e988682a9968955a9087db806b9829be55ef6c695c1984fe4a189a7e9e298e764736f6c634300081c0033608080604052346075573315605f5760008054336001600160a01b0319821681178355916001600160a01b03909116907f8be0079c531659141344cd1fd0a4f28419497f9722a3daafe3b4186f6b6457e09080a361167b908161007b8239f35b631e4fbdf760e01b600052600060045260246000fd5b600080fdfe6080604052600436101561001257600080fd5b60003560e01c80631ce6574f146112fe5780632759c32e146110345780633d4533431461122b5780636c563abe146110c7578063715018a61461106e57806385ed42d2146110345780638da5cb5b1461100b578063bc4b336514610f47578063c5ce863614610e41578063dbaf091014610bdd578063e8ee7bec14610991578063eba9bc961461017e578063f156957a146101445763f2fde38b146100b657600080fd5b3461013f57602036600319011261013f576100cf611391565b6100d761161c565b6001600160a01b0316801561012957600080546001600160a01b03198116831782556001600160a01b0316907f8be0079c531659141344cd1fd0a4f28419497f9722a3daafe3b4186f6b6457e09080a3005b631e4fbdf760e01b600052600060045260246000fd5b600080fd5b3461013f57602036600319011261013f576001600160a01b03610165611391565b1660005260036020526020604060002054604051908152f35b3461013f5760c036600319011261013f576004356001600160401b03811161013f576101ae903690600401611535565b6024356001600160401b03811161013f576101cd903690600401611535565b60443590608435926001600160401b03841161013f573660238501121561013f5783600401356101fc8161158b565b9461020a604051968761142f565b8186526024602087019260051b8201019036821161013f5760248101925b828410610962575050505060a435936001600160401b03851161013f573660238601121561013f5784600401359461025f8661158b565b9561026d604051978861142f565b8087526024602088019160051b8301019136831161013f57602401905b82821061095257505050805185510361090e578051156108c957600092835b86518510156102d1576102c96001916102c2878a611608565b51906115fb565b9401936102a9565b869450606486910361087657336000526003602052604060002054916102f9606435426115fb565b9060405161030681611413565b8681526020810191825260408101908482526060810193600085526080820190815260a08201946000865260c08301936000855260e084019533875233600052600260205260406000208a600052602052604060002094518051906001600160401b03821161064657819061037b88546113d9565b601f8111610823575b50602090601f83116001146107be576000926107b3575b50508160011b916000199060031b1c19161785555b51805160018601916001600160401b038211610646576103d083546113d9565b601f811161076b575b50602090601f83116001146106fa57918061043c9896949260059896946000926106ef575b50508160011b916000199060031b1c19161790555b5160028401555160038301555160048201550193511515849060ff801983541691151516179055565b5182549151610100600160b01b031990921690151560081b61ff00161760109190911b62010000600160b01b031617905560005b835181101561067257336000526004602052604060002083600052602052604060002061049d8286611608565b51906104a98389611608565b5160405192606084018481106001600160401b0382111761064657604052835260208301908152604083019160008352805468010000000000000000811015610646576104fb916001820181556113a7565b93909361065c57518051906001600160401b0382116106465761051e85546113d9565b601f81116105fe575b50602090601f831160011461058d57928260029361057c96936001999896600092610582575b5050600019600383901b1c191690881b1784555b518684015551151591019060ff801983541691151516179055565b01610470565b015190508e8061054d565b90601f1983169186600052816000209260005b8181106105e657509361057c96936001999896938a9383600298106105cd575b505050811b018455610561565b015160001960f88460031b161c191690558e80806105c0565b929360206001819287860151815501950193016105a0565b856000526020600020601f840160051c8101916020851061063c575b601f0160051c01905b8181106106305750610527565b60008155600101610623565b909150819061061a565b634e487b7160e01b600052604160045260246000fd5b634e487b7160e01b600052600060045260246000fd5b508333600052600360205260406000209081549160001983146106d95760017f65fc9743085871a40be1f44ceb6fe2f34c27a9247f03945d1a58a5231f0c4bd8930190556106cb604051916040835260408301906114f4565b9260208201528033930390a3005b634e487b7160e01b600052601160045260246000fd5b0151905038806103fe565b90601f1983169184600052816000209260005b818110610753575092600192859260059a989661043c9c9a98961061073a575b505050811b019055610413565b015160001960f88460031b161c1916905538808061072d565b9293602060018192878601518155019501930161070d565b836000526020600020601f840160051c810191602085106107a9575b601f0160051c01905b81811061079d57506103d9565b60008155600101610790565b9091508190610787565b015190508f8061039b565b60008981528281209350601f198516905b81811061080b57509084600195949392106107f2575b505050811b0185556103b0565b015160001960f88460031b161c191690558f80806107e5565b929360206001819287860151815501950193016107cf565b909150876000526020600020601f840160051c8101916020851061086c575b90601f859493920160051c01905b81811061085d5750610384565b60008155849350600101610850565b9091508190610842565b60405162461bcd60e51b815260206004820152602560248201527f4d696c6573746f6e652070657263656e7461676573206d75737420746f74616c604482015264203130302560d81b6064820152608490fd5b60405162461bcd60e51b815260206004820152601f60248201527f4174206c65617374206f6e65206d696c6573746f6e65207265717569726564006044820152606490fd5b606460405162461bcd60e51b815260206004820152602060248201527f4d696c6573746f6e6520617272617973206c656e677468206d69736d617463686044820152fd5b813581526020918201910161028a565b83356001600160401b03811161013f57602091610986839260243691870101611535565b815201930192610228565b3461013f57604036600319011261013f576001600160a01b036109b2611391565b1660005260046020526040600020602435600052602052604060002080546109d98161158b565b916109e7604051938461142f565b818352601f196109f68361158b565b0160005b818110610bca575050610a0c8261158b565b91610a1a604051938461142f565b808352610a268161158b565b602084019190601f1901368337610a3c8161158b565b90610a4a604051928361142f565b808252610a568161158b565b602083019490601f190136863760005b828110610b5257505050604051948594606086016060875282518091526080870190602060808260051b8a01019401916000905b828210610b1c575050505060209086830382880152519182815201929060005b818110610b03575050506020908483036040860152519182815201919060005b818110610ae8575050500390f35b82511515845285945060209384019390920191600101610ada565b8251855287965060209485019490920191600101610aba565b9193946020610b3e819260019496999a9b9c607f1990820301865289516114f4565b970192019201899897969594939192610a9a565b80610b6e610b68600193859b9798999a9b6113a7565b50611450565b610b788287611608565b52610b838186611608565b5081610b8f82856113a7565b500154610b9c828b611608565b5260ff6002610bab83866113a7565b50015416610bb98288611608565b901515905201969594939296610a66565b60606020828701810191909152016109fa565b3461013f57604036600319011261013f576004356024353360005260026020526040600020826000526020526040600020906003820154916002810154809310610dfc5760050191610c3360ff845416156115a2565b3360005260046020526040600020846000526020526040600020918254811015610db757610c6181846113a7565b5091600283019081549360ff8516610d725760010154908181029181830414901517156106d9576064600191049360ff19161790558160008115610d69575b600080809381933390f115610d5d57849160405191825260208201527fa503173a1b4a190b5d5843090af5bb6c9a8be1d7b457f3e07cabc3b0c14dc8f260403392a3805460019160005b828110610d30575b505050610cfb57005b805461ffff1916610101179055337f51da7246fced8d2d4bdbf6b9b38c778c9ed909d312f94398d07fc96bd9f0dfff600080a3005b60ff6002610d3e83856113a7565b5001541615610d4f57600101610cea565b505050506000838080610cf2565b6040513d6000823e3d90fd5b506108fc610ca0565b60405162461bcd60e51b815260206004820152601a60248201527f4d696c6573746f6e6520616c72656164792072656c65617365640000000000006044820152606490fd5b60405162461bcd60e51b815260206004820152601760248201527f496e76616c6964206d696c6573746f6e6520696e6465780000000000000000006044820152606490fd5b60405162461bcd60e51b815260206004820152601860248201527f50726f6a656374206e6f742066756c6c792066756e64656400000000000000006044820152606490fd5b3461013f57604036600319011261013f576001600160a01b03610e62611391565b1660005260026020526040600020602435600052602052610f1b6040600020604051610e8d81611413565b610e9682611450565b8152610ea460018301611450565b918260208301526002810154918260408201526003820154918260608301526005600482015491826080850152015492610f2960ff85161515938460a082015260ff8660081c161515958660c083015260018060a01b039060101c1660e0820152519660405198899860e08a5260e08a01906114f4565b9088820360208a01526114f4565b9460408701526060860152608085015260a084015260c08301520390f35b604036600319011261013f57610f5b611391565b6024359081158015611002575b15610fbd5760207f8fe10ae416f22f5e5220b0018a6c1d4ff534d6aa3a471f2a20cb7747fe63e5b99160018060a01b03169283600052600182526040600020610fb28282546115fb565b9055604051908152a2005b60405162461bcd60e51b815260206004820152601f60248201527f416d6f756e74206d69736d6174636820776974682073656e742076616c7565006044820152606490fd5b50813414610f68565b3461013f57600036600319011261013f576000546040516001600160a01b039091168152602090f35b3461013f57602036600319011261013f576001600160a01b03611055611391565b1660005260016020526020604060002054604051908152f35b3461013f57600036600319011261013f5761108761161c565b600080546001600160a01b0319811682556001600160a01b03167f8be0079c531659141344cd1fd0a4f28419497f9722a3daafe3b4186f6b6457e08280a3005b3461013f57602036600319011261013f57600435336000526002602052604060002081600052602052604060002061110660ff600583015416156115a2565b600481015442116111e657600281019060038254910190611129825480926115ee565b3360005260016020526040600020549081156111ac5761115391808210156111a3575080926115fb565b825533600052600160205261116e60406000209182546115ee565b9055549054111561117b57005b337fc8cefeda7e3710fb64fe423aff7bcf0349d2dde24fb0b20a2a695b7dfa2030e6600080a3005b905080926115fb565b60405162461bcd60e51b81526020600482015260126024820152714e6f2066756e647320617661696c61626c6560701b6044820152606490fd5b60405162461bcd60e51b815260206004820152601760248201527f50726f6a65637420646561646c696e65207061737365640000000000000000006044820152606490fd5b3461013f57604036600319011261013f576001600160a01b0361124c611391565b16600052600260205260406000206024356000526020526112b0604060002061127481611450565b9061128160018201611450565b60028201549160038101546112be600560048401549301549360405197889761010089526101008901906114f4565b9087820360208901526114f4565b60408601949094526060850152608084015260ff818116151560a0850152600882901c16151560c084015260101c6001600160a01b031660e08301520390f35b3461013f57606036600319011261013f57611317611391565b6044359060018060a01b0316600052600460205260406000206024356000526020526040600020805482101561013f5761138091611354916113a7565b5061135e81611450565b9060ff60026001830154920154166040519384936060855260608501906114f4565b916020840152151560408301520390f35b600435906001600160a01b038216820361013f57565b80548210156113c3576000526003602060002091020190600090565b634e487b7160e01b600052603260045260246000fd5b90600182811c92168015611409575b60208310146113f357565b634e487b7160e01b600052602260045260246000fd5b91607f16916113e8565b61010081019081106001600160401b0382111761064657604052565b90601f801991011681019081106001600160401b0382111761064657604052565b9060405191826000825492611464846113d9565b80845293600181169081156114d2575060011461148b575b506114899250038361142f565b565b90506000929192526020600020906000915b8183106114b6575050906020611489928201013861147c565b602091935080600191548385890101520191019091849261149d565b90506020925061148994915060ff191682840152151560051b8201013861147c565b919082519283825260005b848110611520575050826000602080949584010152601f8019910116010190565b806020809284010151828286010152016114ff565b81601f8201121561013f578035906001600160401b0382116106465760405192611569601f8401601f19166020018561142f565b8284526020838301011161013f57816000926020809301838601378301015290565b6001600160401b0381116106465760051b60200190565b156115a957565b60405162461bcd60e51b815260206004820152601960248201527f50726f6a65637420616c726561647920636f6d706c65746564000000000000006044820152606490fd5b919082039182116106d957565b919082018092116106d957565b80518210156113c35760209160051b010190565b6000546001600160a01b0316330361163057565b63118cdaa760e01b6000523360045260246000fdfea264697066735822122040f360d0ec3eaa428b386c3198a3b01369214aa99f946a56076c28ed6e78a94b64736f6c634300081c003360803461013b57601f61131338819003918201601f19168301916001600160401b038311848410176101405780849260809460405283398101031261013b5761004781610156565b9061005460208201610156565b90606061006360408301610156565b9101516001600160a01b038116929083900361013b5733156101255760008054336001600160a01b0319821681178355604051969290916001600160a01b0316907f8be0079c531659141344cd1fd0a4f28419497f9722a3daafe3b4186f6b6457e09080a360026004819055600180546001600160a01b03199081166001600160a01b0394851617909155815481169383169390931790556003805483169390911692909217909155600580549091169190911790556111a8908161016b8239f35b631e4fbdf760e01b600052600060045260246000fd5b600080fd5b634e487b7160e01b600052604160045260246000fd5b51906001600160a01b038216820361013b5756fe6080604052600436101561001257600080fd5b6000803560e01c80630705014114610b2c57806312e8e2c314610acd578063305a67a814610a00578063715018a6146109a65780637273cc0214610774578063854a57de1461074b5780638831e9cf146107015780638da5cb5b146106da578063bf1c2f6514610657578063cdd78cfc14610639578063dec87f1c146105cf578063e09c1b8e146101d0578063eb3c79da146101a7578063f2fde38b14610121578063f6a1fe94146100f85763fa2af9da146100cd57600080fd5b346100f557806003193601126100f5576005546040516001600160a01b039091168152602090f35b80fd5b50346100f557806003193601126100f5576003546040516001600160a01b039091168152602090f35b50346100f55760203660031901126100f55761013b610f04565b610143611149565b6001600160a01b031680156101935781546001600160a01b03198116821783556001600160a01b03167f8be0079c531659141344cd1fd0a4f28419497f9722a3daafe3b4186f6b6457e08380a380f35b631e4fbdf760e01b82526004829052602482fd5b50346100f557806003193601126100f5576001546040516001600160a01b039091168152602090f35b5060603660031901126100f5576101e5610f04565b6001600160a01b0381168083526006602090815260408085206024358087529252808520905192936044359361021a81610f76565b82546001600160a01b0316808252600184015460208301908152600290940154604090920191825286900361057f578481511061053a5761026761025f8685516110c7565b3410156110f0565b60015460405163b09afec160e01b81526004810186905288918290829060249082906001600160a01b03165afa90811561052f576102d8918389819382936104f1575b5081806102e66102bc82948d516110c7565b6102e16064806102ce600454856110c7565b049a8b99846110c7565b0497889261113c565b61113c565b6005549097906001600160a01b03168282156104e8575bf1156104d957839181610461575b50508080928a828215610458575bf11561044d5760015487906001600160a01b0316803b1561044957604051637921219560e11b81526001600160a01b03949094166004850152336024850152604484018690526064840187905260a06084850152600060a48501528190849060c490829084905af192831561043c57869361041d575b505051036103f257838552600660205260408520828652602052600060026040872082815582600182015501555b5160405192835260208301527f892605e5aa205718bf5422cbe570beb6c419fe374afe9a7f9c8fc114b99020a860403393a480f35b8385526006602052604085208286526020526002604086200161041684825461113c565b90556103bd565b819293509061042b91610fa8565b610438578390863861038f565b8580fd5b50604051903d90823e3d90fd5b5080fd5b6040513d88823e3d90fd5b506108fc610319565b6002546001600160a01b0316925090823b156104e457604051637b0aa43360e01b81526001600160a01b03929092166004830152602482018990526044820181905290918491839160649183915af19081156104d95783916104c4575b8061030b565b816104ce91610fa8565b6104495781386104be565b6040513d85823e3d90fd5b8480fd5b506108fc6102fd565b6102bc945082809294506102e661051a82933d8085833e6105128183610fa8565b81019061103a565b5050509a9350509050979694505050506102aa565b6040513d84823e3d90fd5b60405162461bcd60e51b815260206004820152601860248201527f4e6f7420656e6f75676820746f6b656e73206c697374656400000000000000006044820152606490fd5b60405162461bcd60e51b815260206004820152602260248201527f4e6f20616374697665206c697374696e672066726f6d20746869732073656c6c60448201526132b960f11b6064820152608490fd5b50346100f55760403660031901126100f5576040906001600160a01b036105f4610f04565b168152600660209081528282206024358352815291902080546001820154600290920154604080516001600160a01b0390931683529382019290925291820152606090f35b50346100f557806003193601126100f5576020600454604051908152f35b50346100f55760403660031901126100f5576040906001600160a01b0361067c610f04565b168152600660205281812060243582526020522060405161069c81610f76565b81546001600160a01b031680825260018301546020808401829052600290940154604093840181905283519283529382015290810191909152606090f35b50346100f557806003193601126100f557546040516001600160a01b039091168152602090f35b50346100f55760203660031901126100f5576004356001600160a01b0381169081900361044957610730611149565b6bffffffffffffffffffffffff60a01b600554161760055580f35b50346100f557806003193601126100f5576002546040516001600160a01b039091168152602090f35b50346100f55760603660031901126100f557600154604051627eeac760e11b815233600480830191909152356024808301829052359290916044803592602091839182906001600160a01b03165afa801561099b5782918691610966575b50106109215782156108dc576107e9811515610f1f565b6040516107f581610f76565b3381526002602082018581526040830190848252338852600660205260408820868952602052604088209360018060a01b039051166bffffffffffffffffffffffff60a01b855416178455516001840155519101558360018060a01b0360015416803b156104495781809160446040518094819363a22cb46560e01b8352306004840152600160248401525af1801561052f576108c3575b505060405192835260208301527f2428821d20d9a8080d99a3d335d478f0546d90a0376be12c52a6d600f15586bf60403393a380f35b816108cd91610fa8565b6108d857833861088d565b8380fd5b60405162461bcd60e51b815260206004820152601f60248201527f5072696365206d7573742062652067726561746572207468616e207a65726f006044820152606490fd5b60405162461bcd60e51b815260206004820152601a60248201527f496e73756666696369656e7420746f6b656e2062616c616e63650000000000006044820152606490fd5b9150506020813d602011610993575b8161098260209383610fa8565b810103126104e457819051386107d2565b3d9150610975565b6040513d87823e3d90fd5b50346100f557806003193601126100f5576109bf611149565b80546001600160a01b03198116825581906001600160a01b03167f8be0079c531659141344cd1fd0a4f28419497f9722a3daafe3b4186f6b6457e08280a380f35b50346100f55760203660031901126100f5576004353382526006602052604082208183526020523360018060a01b0360408420541603610a88573382526006602052604082208183526020526000600260408420828155826001820155015533907f70a382c18b6e794d86997f6e1f1efca577925cfa85c476a6ff7031f0a3dd6ed08380a380f35b60405162461bcd60e51b815260206004820152601760248201527f4e6f20616374697665206c697374696e6720666f756e640000000000000000006044820152606490fd5b50346100f55760203660031901126100f557600435610aea611149565b600a8111610af85760045580f35b60405162461bcd60e51b815260206004820152600c60248201526b08ccaca40e8dede40d0d2ced60a31b6044820152606490fd5b5060403660031901126100f55760248035600435610b4b821515610f1f565b60015460405163b09afec160e01b81526004810183905293859185919082906001600160a01b03165afa8015610ef957848591869087968891610ece575b506001600160a01b038316968715610e92578015918215610e68575b505015610e2357610bb961025f86856110c7565b610bc385846110c7565b9087808080610bf76064610bef610be882610be06004548c6110c7565b04809a61113c565b97886110c7565b04809661113c565b6005549096906001600160a01b0316828215610e1a575bf115610e0f576002546001600160a01b0316908890823b1561044957604051637b0aa43360e01b81526001600160a01b038616600482015260248101889052604481018290529283916064918391905af18015610e0457610dee575b506003548792916001600160a01b0390911690813b156108d85760405163bc4b336560e01b81526001600160a01b038416600482015260248101829052918491839160449183915af19081156104d9578391610dd9575b50506001546001600160a01b0316803b15610dc057828091604460405180948193635b0d276d60e01b83528a60048401528b60248401525af19081156104d9578391610dc4575b50506001546001600160a01b0316803b15610dc057604051637921219560e11b81526001600160a01b03929092166004830152336024830152604482018590526064820186905260a06084830152600060a48301528290829060c490829084905af1801561052f57610dab575b505060405192835260208301527f892605e5aa205718bf5422cbe570beb6c419fe374afe9a7f9c8fc114b99020a860403393a480f35b81610db591610fa8565b6104e4578438610d75565b8280fd5b81610dce91610fa8565b610449578138610d08565b81610de391610fa8565b610449578138610cc1565b87610dfc9198929398610fa8565b959038610c6a565b6040513d8a823e3d90fd5b6040513d89823e3d90fd5b506108fc610c0e565b60405162461bcd60e51b815260206004820152601b60248201527f4e6f7420656e6f75676820746f6b656e7320617661696c61626c6500000000006044820152606490fd5b909150868101809111610e7e5711153880610ba5565b634e487b7160e01b89526011600452602489fd5b60405162461bcd60e51b8152602060048201526014602482015273151bdad95b88191bd95cc81b9bdd08195e1a5cdd60621b6044820152606490fd5b9350505050610ee89193503d8086833e6105128183610fa8565b909896509294509091905038610b89565b6040513d86823e3d90fd5b600435906001600160a01b0382168203610f1a57565b600080fd5b15610f2657565b60405162461bcd60e51b815260206004820152602260248201527f5175616e74697479206d7573742062652067726561746572207468616e207a65604482015261726f60f01b6064820152608490fd5b6060810190811067ffffffffffffffff821117610f9257604052565b634e487b7160e01b600052604160045260246000fd5b90601f8019910116810190811067ffffffffffffffff821117610f9257604052565b81601f82011215610f1a5780519067ffffffffffffffff8211610f925760405192610fff601f8401601f191660200185610fa8565b82845260208383010111610f1a5760005b82811061102557505060206000918301015290565b80602080928401015182828701015201611010565b91909161010081840312610f1a57805167ffffffffffffffff8111610f1a5783611065918301610fca565b9260208201519067ffffffffffffffff8211610f1a57611086918301610fca565b60408201519092906001600160a01b0381168103610f1a579160608101519160808201519160a08101518015158103610f1a579160e060c083015192015190565b818102929181159184041417156110da57565b634e487b7160e01b600052601160045260246000fd5b156110f757565b60405162461bcd60e51b815260206004820152601760248201527f496e73756666696369656e742066756e64732073656e740000000000000000006044820152606490fd5b919082039182116110da57565b6000546001600160a01b0316330361115d57565b63118cdaa760e01b6000523360045260246000fdfea26469706673582212206e76fe846fd7d82d772b1212daa91550ecee7c75fd025487c0e657685520094e64736f6c634300081c003360803460d157601f6110e338819003918201601f19168301916001600160401b0383118484101760d65780849260209460405283398101031260d157516001600160a01b0381169081900360d157331560bb5760008054336001600160a01b0319821681178355604051939290916001600160a01b0316907f8be0079c531659141344cd1fd0a4f28419497f9722a3daafe3b4186f6b6457e09080a3600180546001600160a01b031916919091179055610ff690816100ed8239f35b631e4fbdf760e01b600052600060045260246000fd5b600080fd5b634e487b7160e01b600052604160045260246000fdfe6080604052600436101561001257600080fd5b60003560e01c80634d6ea453146109805780634e04e4b4146108cb5780636b57fdf0146106bd578063715018a6146106645780638da5cb5b1461063b5780639022bd5e146105df57806391679f3314610586578063c0f0a898146104ff578063eb3c79da146104d6578063f169caab146101235763f2fde38b1461009557600080fd5b3461011e57602036600319011261011e576100ae610c11565b6100b6610f97565b6001600160a01b0316801561010857600080546001600160a01b03198116831782556001600160a01b0316907f8be0079c531659141344cd1fd0a4f28419497f9722a3daafe3b4186f6b6457e09080a3005b631e4fbdf760e01b600052600060045260246000fd5b600080fd5b3461011e57606036600319011261011e5760243560043560443567ffffffffffffffff811161011e5761015a903690600401610bca565b906024600060018060a01b03600154166040519283809263b09afec160e01b82528660048301525afa9081156104ca5760009161043a575b506001600160a01b031633036103e35760405160208101903360601b8252826034820152426054820152605481526101cb607482610b8c565b519020916040516101db81610b70565b82815260208101918583526040820190815260608201926001845233600052600260205260406000208660005260205260406000209251835551600183015560028201905180519067ffffffffffffffff82116103105761023c8354610cd1565b601f811161039b575b50602090601f83116001146103315760039493929160009183610326575b50508160011b9160001990861b1c19161790555b019051151560ff801983541691161790553360005260036020526040600020928354936801000000000000000085101561031057846102bd916001602097018155610ca3565b81549060031b9085821b91600019901b1916179055604051918383528483015260408201527faa437ffb6c904fb769907cbf2447c433b66ca9d4bd82a051b390f64ba6c9c3ea60603392a2604051908152f35b634e487b7160e01b600052604160045260246000fd5b015190508980610263565b90601f1983169184600052816000209260005b81811061038357509160019391856003989796941061036b575b505050811b019055610277565b015160001983881b60f8161c1916905589808061035e565b92936020600181928786015181550195019301610344565b836000526020600020601f840160051c810191602085106103d9575b601f0160051c01905b8181106103cd5750610245565b600081556001016103c0565b90915081906103b7565b60405162461bcd60e51b815260206004820152602960248201527f4f6e6c7920746f6b656e206172746973742063616e20637265617465206163636044820152686573732072756c657360b81b6064820152608490fd5b903d8082843e61044a8184610b8c565b8201610100838203126104c257825167ffffffffffffffff81116104c65781610474918501610f52565b50602083015167ffffffffffffffff81116104c65790610495918401610f52565b506040820151916001600160a01b03831683036104c25760a00151801515036104bf575084610192565b80fd5b5080fd5b8280fd5b6040513d6000823e3d90fd5b3461011e57600036600319011261011e576001546040516001600160a01b039091168152602090f35b3461011e57604036600319011261011e576001600160a01b03610520610c11565b16600052600260205260406000206024356000526020526040600020805460018201549161057a60ff600361055760028501610d0b565b930154169160405194859485526020850152608060408501526080840190610c7e565b90151560608301520390f35b3461011e57604036600319011261011e5761059f610c11565b6001600160a01b031660009081526003602052604090208054602435919082101561011e576020916105d091610ca3565b90549060031b1c604051908152f35b3461011e57606036600319011261011e576105f8610c11565b6044356001600160a01b038116810361011e576106189160243590610e0d565b9061063760405192839215158352604060208401526040830190610c7e565b0390f35b3461011e57600036600319011261011e576000546040516001600160a01b039091168152602090f35b3461011e57600036600319011261011e5761067d610f97565b600080546001600160a01b0319811682556001600160a01b03167f8be0079c531659141344cd1fd0a4f28419497f9722a3daafe3b4186f6b6457e08280a3005b3461011e57602036600319011261011e576001600160a01b036106de610c11565b16806000526003602052604060002090604051908160208454918281520190819460005260206000209060005b8181106108b55750505082610721910383610b8c565b815161072c81610dc7565b9361073682610dc7565b9061074083610daf565b9261074e6040519485610b8c565b80845261075a81610daf565b602085019590601f190136873760005b828110610815575050506040519586956080870190608088525180915260a08701929060005b8181106107fc57505050916107b182602094886107bf9503868a0152610c27565b908682036040880152610c27565b918483036060860152519182815201919060005b8181106107e1575050500390f35b825115158452859450602093840193909201916001016107d3565b8251855289985060209485019490920191600101610790565b6001908260009a95969798999a5260026020526040600020610837828c610df9565b5160005260205260406000206040519061085082610b70565b8054825260ff600385830154926020850193845261087060028201610d0b565b6040860152015416916060810192151583525161088d8489610df9565b5251610899838a610df9565b525115156108a7828a610df9565b52019796959493929761076a565b825484526020909301926001928301920161070b565b3461011e57602036600319011261011e576004353360005260026020526040600020816000526020526003604060002001805460ff81161561093b5760ff191690556040519081527fb06356957471b15f8d36bef923bdc2c1f7419f43b3a41a6722ad2b5ebba4a9f360203392a2005b60405162461bcd60e51b815260206004820152601c60248201527f4163636573732072756c6520616c726561647920696e616374697665000000006044820152606490fd5b3461011e57606036600319011261011e5760043560443567ffffffffffffffff811161011e576109b4903690600401610bca565b90336000526002602052604060002081600052602052604060002060ff60038201541615610b2157600290602435600182015501825167ffffffffffffffff811161031057610a038254610cd1565b601f8111610ad9575b506020601f8211600114610a745781929394600092610a69575b50508160011b916000199060031b1c19161790555b6040519081527f4504386c2a672e34ffc864c6f0f3e751b59f66e1f17356e60defb27bd710c09760203392a2005b015190508480610a26565b601f1982169083600052806000209160005b818110610ac157509583600195969710610aa8575b505050811b019055610a3b565b015160001960f88460031b161c19169055848080610a9b565b9192602060018192868b015181550194019201610a86565b826000526020600020601f830160051c81019160208410610b17575b601f0160051c01905b818110610b0b5750610a0c565b60008155600101610afe565b9091508190610af5565b60405162461bcd60e51b815260206004820152602160248201527f4163636573732072756c65206e6f7420666f756e64206f7220696e61637469766044820152606560f81b6064820152608490fd5b6080810190811067ffffffffffffffff82111761031057604052565b90601f8019910116810190811067ffffffffffffffff82111761031057604052565b67ffffffffffffffff811161031057601f01601f191660200190565b81601f8201121561011e57803590610be182610bae565b92610bef6040519485610b8c565b8284526020838301011161011e57816000926020809301838601378301015290565b600435906001600160a01b038216820361011e57565b906020808351928381520192019060005b818110610c455750505090565b8251845260209384019390920191600101610c38565b60005b838110610c6e5750506000910152565b8181015183820152602001610c5e565b90602091610c9781518092818552858086019101610c5b565b601f01601f1916010190565b8054821015610cbb5760005260206000200190600090565b634e487b7160e01b600052603260045260246000fd5b90600182811c92168015610d01575b6020831014610ceb57565b634e487b7160e01b600052602260045260246000fd5b91607f1691610ce0565b9060405191826000825492610d1f84610cd1565b8084529360018116908115610d8d5750600114610d46575b50610d4492500383610b8c565b565b90506000929192526020600020906000915b818310610d71575050906020610d449282010138610d37565b6020919350806001915483858901015201910190918492610d58565b905060209250610d4494915060ff191682840152151560051b82010138610d37565b67ffffffffffffffff81116103105760051b60200190565b90610dd182610daf565b610dde6040519182610b8c565b8281528092610def601f1991610daf565b0190602036910137565b8051821015610cbb5760209160051b010190565b60018060a01b0316600052600260205260406000209060005260205260406000209060405190610e3c82610b70565b825482526001830154906020830191825260ff6003610e5d60028701610d0b565b95604086019687520154161580156060850152610f14576001549251604051627eeac760e11b81526001600160a01b03928316600482015260248101919091529260209184916044918391165afa9182156104ca57600092610ee0575b505111610ec75751600191565b50600090604051610ed9602082610b8c565b6000815290565b9091506020813d602011610f0c575b81610efc60209383610b8c565b8101031261011e57519038610eba565b3d9150610eef565b60405162461bcd60e51b81526020600482015260166024820152754163636573732072756c65206e6f742061637469766560501b6044820152606490fd5b81601f8201121561011e578051610f6881610bae565b92610f766040519485610b8c565b8184526020828401011161011e57610f949160208085019101610c5b565b90565b6000546001600160a01b03163303610fab57565b63118cdaa760e01b6000523360045260246000fdfea2646970667358221220a7fd6e19cf648d3e0ac4c338aa5399fb4fff1cbedf1abd066868567873944cb764736f6c634300081c003360803460d857601f61113838819003918201601f19168301916001600160401b0383118484101760dd5780849260209460405283398101031260d857516001600160a01b0381169081900360d857331560c25760008054336001600160a01b0319821681178355604051939290916001600160a01b0316907f8be0079c531659141344cd1fd0a4f28419497f9722a3daafe3b4186f6b6457e09080a36203f480600555600180546001600160a01b03191691909117905561104490816100f48239f35b631e4fbdf760e01b600052600060045260246000fd5b600080fd5b634e487b7160e01b600052604160045260246000fdfe6080604052600436101561001257600080fd5b60003560e01c8063013cf08b14610cd957806302a251a314610cbb57806302d52fa4146109005780630d61b519146107995780630f9110771461074057806315373e3d1461051c5780633b4d01a714610475578063438596321461041a578063715018a6146103c157806376f7f9a8146103075780638da5cb5b146102de578063e0a8f6f5146101f4578063ea0217cf14610178578063eb3c79da1461014f5763f2fde38b146100c157600080fd5b3461014a57602036600319011261014a576100da610ef7565b6100e2610fe5565b6001600160a01b0316801561013457600080546001600160a01b03198116831782556001600160a01b0316907f8be0079c531659141344cd1fd0a4f28419497f9722a3daafe3b4186f6b6457e09080a3005b631e4fbdf760e01b600052600060045260246000fd5b600080fd5b3461014a57600036600319011261014a576001546040516001600160a01b039091168152602090f35b3461014a57602036600319011261014a57600435610194610fe5565b801561019f57600555005b60405162461bcd60e51b815260206004820152602760248201527f566f74696e6720706572696f64206d7573742062652067726561746572207468604482015266616e207a65726f60c81b6064820152608490fd5b3461014a57602036600319011261014a57600435806000526003602052604060002060018060a01b03600182015416331480156102ca575b156102945760080160ff815416600481101561027e5761024c9015610fa3565b805460ff191660021790557f416e669c63d9a3a5e36ee7cc7e2104b8db28ccd286aa18966e98fa230c73b08c600080a2005b634e487b7160e01b600052602160045260246000fd5b60405162461bcd60e51b815260206004820152600e60248201526d139bdd08185d5d1a1bdc9a5e995960921b6044820152606490fd5b506000546001600160a01b0316331461022c565b3461014a57600036600319011261014a576000546040516001600160a01b039091168152602090f35b3461014a57602036600319011261014a576001600160a01b03610328610ef7565b16600052600460205260406000206040518060208354918281520190819360005260206000209060005b8181106103ab5750505081610368910382610dc0565b6040519182916020830190602084525180915260408301919060005b818110610392575050500390f35b8251845285945060209384019390920191600101610384565b8254845260209093019260019283019201610352565b3461014a57600036600319011261014a576103da610fe5565b600080546001600160a01b0319811682556001600160a01b03167f8be0079c531659141344cd1fd0a4f28419497f9722a3daafe3b4186f6b6457e08280a3005b3461014a57604036600319011261014a576024356001600160a01b038116810361014a57600435600052600360205260096040600020019060018060a01b0316600052602052602060ff604060002054166040519015158152f35b3461014a57602036600319011261014a576004356000526003602052604060002060018060a01b03600182015416600282015491610518600482015491600581015460068201546007830154916104f96104d9600360ff6008880154169601610de2565b604051998a998a5260208a015261010060408a0152610100890190610ea9565b956060880152608087015260a086015260c085015260e0840190610ece565b0390f35b3461014a57604036600319011261014a57600435602435908115159182810361014a57816000526003602052604060002060ff600882015416600481101561027e576105689015610fa3565b6007810154421161070557600981019160018060a01b0333166000528260205260ff604060002054166106d05760018060a01b03600154169260206002840154604460405180978193627eeac760e11b835233600484015260248301525afa9384156106c45760009461068d575b5083156106565733600090815260209190915260409020805460ff19166001179055156106415760040161060b828254610f80565b90555b60405192835260208301527fcbdf6214089cba887ecbf35a0b6a734589959c9763342c756bb2a80ca2bc9f6e60403393a3005b60050161064f828254610f80565b905561060e565b60405162461bcd60e51b815260206004820152600f60248201526e2737903b37ba34b733903837bbb2b960891b6044820152606490fd5b90936020823d6020116106bc575b816106a860209383610dc0565b810103126106b957505192866105d6565b80fd5b3d915061069b565b6040513d6000823e3d90fd5b60405162461bcd60e51b815260206004820152600d60248201526c105b1c9958591e481d9bdd1959609a1b6044820152606490fd5b60405162461bcd60e51b8152602060048201526013602482015272159bdd1a5b99c81c195c9a5bd908195b991959606a1b6044820152606490fd5b3461014a57604036600319011261014a57610759610ef7565b6001600160a01b031660009081526004602052604090208054602435919082101561014a5760209161078a91610f0d565b90549060031b1c604051908152f35b3461014a57602036600319011261014a57600435600081815260036020526040902060018101546001600160a01b031633036108bc57600881019060ff825416600481101561027e576107ec9015610fa3565b60078101544211156108775760056004820154910154101561083a57805460ff191660011790557f712ae1383f79ac853f8d882153778e0260ef8f03b504e2866e0593e04d2b291f600080a2005b60405162461bcd60e51b8152602060048201526015602482015274141c9bdc1bdcd85b081dd85cc819195999585d1959605a1b6044820152606490fd5b60405162461bcd60e51b815260206004820152601760248201527f566f74696e6720706572696f64206e6f7420656e6465640000000000000000006044820152606490fd5b606460405162461bcd60e51b815260206004820152602060248201527f4f6e6c79206172746973742063616e20657865637574652070726f706f73616c6044820152fd5b3461014a57604036600319011261014a5760243560043567ffffffffffffffff821161014a573660238301121561014a57816004013561093f81610edb565b9261094d6040519485610dc0565b818452366024838301011161014a5781600092602460209301838701378401015260015460405163b09afec160e01b81526004810183905290600090829060249082906001600160a01b03165afa9081156106c457600091610c2e575b506001600160a01b03163303610bda576002549060018201600255816000526003602052604060002082815560018101336bffffffffffffffffffffffff60a01b82541617905581600282015560038101845167ffffffffffffffff8111610b0e57610a168254610d86565b601f8111610b92575b50806020601f8211600114610b2f57600091610b24575b508160011b916000199060031b1c19161790555b60068101934285556008610a6060055442610f80565b92600781019384550160ff19815416905533600052600460205260406000209081549068010000000000000000821015610b0e57602096610ac983889560017f47c7c8c8479f2b1c8529fa35f848d4e7e0ce2a3fa477414e0b40bfbf471bba7696018155610f0d565b81549060031b9086821b91600019901b1916179055549354610af660405192606084526060840190610ea9565b948883015260408201528033940390a4604051908152f35b634e487b7160e01b600052604160045260246000fd5b905086015187610a36565b60008481528181209250601f198416905b818110610b7a57509083600194939210610b61575b5050811b019055610a4a565b88015160001960f88460031b161c191690558780610b55565b9192602060018192868d015181550194019201610b40565b826000526020600020601f830160051c81019160208410610bd0575b601f0160051c01905b818110610bc45750610a1f565b60008155600101610bb7565b9091508190610bae565b60405162461bcd60e51b815260206004820152602660248201527f4f6e6c7920746f6b656e206172746973742063616e206372656174652070726f604482015265706f73616c7360d01b6064820152608490fd5b903d8082843e610c3e8184610dc0565b820161010083820312610cb357825167ffffffffffffffff8111610cb75781610c68918501610f3b565b50602083015167ffffffffffffffff8111610cb75790610c89918401610f3b565b506040820151916001600160a01b0383168303610cb35760a00151801515036106b95750836109aa565b5080fd5b8280fd5b3461014a57600036600319011261014a576020600554604051908152f35b3461014a57602036600319011261014a5760043560005260036020526040600020805460018060a01b03600183015416916105186002820154610d1e60038401610de2565b926004810154936005820154610d6660068401549260ff6008600787015496015416956040519a8b9a8b5260208b015260408a015261012060608a0152610120890190610ea9565b95608088015260a087015260c086015260e0850152610100840190610ece565b90600182811c92168015610db6575b6020831014610da057565b634e487b7160e01b600052602260045260246000fd5b91607f1691610d95565b90601f8019910116810190811067ffffffffffffffff821117610b0e57604052565b9060405191826000825492610df684610d86565b8084529360018116908115610e645750600114610e1d575b50610e1b92500383610dc0565b565b90506000929192526020600020906000915b818310610e48575050906020610e1b9282010138610e0e565b6020919350806001915483858901015201910190918492610e2f565b905060209250610e1b94915060ff191682840152151560051b82010138610e0e565b60005b838110610e995750506000910152565b8181015183820152602001610e89565b90602091610ec281518092818552858086019101610e86565b601f01601f1916010190565b90600482101561027e5752565b67ffffffffffffffff8111610b0e57601f01601f191660200190565b600435906001600160a01b038216820361014a57565b8054821015610f255760005260206000200190600090565b634e487b7160e01b600052603260045260246000fd5b81601f8201121561014a578051610f5181610edb565b92610f5f6040519485610dc0565b8184526020828401011161014a57610f7d9160208085019101610e86565b90565b91908201809211610f8d57565b634e487b7160e01b600052601160045260246000fd5b15610faa57565b60405162461bcd60e51b815260206004820152601360248201527250726f706f73616c206e6f742061637469766560681b6044820152606490fd5b6000546001600160a01b03163303610ff957565b63118cdaa760e01b6000523360045260246000fdfea26469706673582212208ec0054982abcda3c8af2fa24f802714f624009c7c004b7c266bb1440e5376d264736f6c634300081c0033",
  "linkReferences": {},
  "deployedLinkReferences": {}
}